{
  "contractName": "NgngNft",
  "abi": [
    {
      "inputs": [],
      "stateMutability": "nonpayable",
      "type": "constructor"
    },
    {
      "anonymous": false,
      "inputs": [
        {
          "indexed": true,
          "internalType": "address",
          "name": "owner",
          "type": "address"
        },
        {
          "indexed": true,
          "internalType": "address",
          "name": "approved",
          "type": "address"
        },
        {
          "indexed": true,
          "internalType": "uint256",
          "name": "tokenId",
          "type": "uint256"
        }
      ],
      "name": "Approval",
      "type": "event"
    },
    {
      "anonymous": false,
      "inputs": [
        {
          "indexed": true,
          "internalType": "address",
          "name": "owner",
          "type": "address"
        },
        {
          "indexed": true,
          "internalType": "address",
          "name": "operator",
          "type": "address"
        },
        {
          "indexed": false,
          "internalType": "bool",
          "name": "approved",
          "type": "bool"
        }
      ],
      "name": "ApprovalForAll",
      "type": "event"
    },
    {
      "anonymous": false,
      "inputs": [
        {
          "indexed": true,
          "internalType": "address",
          "name": "previousOwner",
          "type": "address"
        },
        {
          "indexed": true,
          "internalType": "address",
          "name": "newOwner",
          "type": "address"
        }
      ],
      "name": "OwnershipTransferred",
      "type": "event"
    },
    {
      "anonymous": false,
      "inputs": [
        {
          "indexed": true,
          "internalType": "address",
          "name": "from",
          "type": "address"
        },
        {
          "indexed": true,
          "internalType": "address",
          "name": "to",
          "type": "address"
        },
        {
          "indexed": true,
          "internalType": "uint256",
          "name": "tokenId",
          "type": "uint256"
        }
      ],
      "name": "Transfer",
      "type": "event"
    },
    {
      "inputs": [
        {
          "internalType": "address",
          "name": "to",
          "type": "address"
        },
        {
          "internalType": "uint256",
          "name": "tokenId",
          "type": "uint256"
        }
      ],
      "name": "approve",
      "outputs": [],
      "stateMutability": "nonpayable",
      "type": "function"
    },
    {
      "inputs": [
        {
          "internalType": "address",
          "name": "owner",
          "type": "address"
        }
      ],
      "name": "balanceOf",
      "outputs": [
        {
          "internalType": "uint256",
          "name": "",
          "type": "uint256"
        }
      ],
      "stateMutability": "view",
      "type": "function",
      "constant": true
    },
    {
      "inputs": [
        {
          "internalType": "uint256",
          "name": "tokenId",
          "type": "uint256"
        }
      ],
      "name": "getApproved",
      "outputs": [
        {
          "internalType": "address",
          "name": "",
          "type": "address"
        }
      ],
      "stateMutability": "view",
      "type": "function",
      "constant": true
    },
    {
      "inputs": [
        {
          "internalType": "address",
          "name": "owner",
          "type": "address"
        },
        {
          "internalType": "address",
          "name": "operator",
          "type": "address"
        }
      ],
      "name": "isApprovedForAll",
      "outputs": [
        {
          "internalType": "bool",
          "name": "",
          "type": "bool"
        }
      ],
      "stateMutability": "view",
      "type": "function",
      "constant": true
    },
    {
      "inputs": [],
      "name": "name",
      "outputs": [
        {
          "internalType": "string",
          "name": "",
          "type": "string"
        }
      ],
      "stateMutability": "view",
      "type": "function",
      "constant": true
    },
    {
      "inputs": [],
      "name": "nftPrice",
      "outputs": [
        {
          "internalType": "uint256",
          "name": "",
          "type": "uint256"
        }
      ],
      "stateMutability": "view",
      "type": "function",
      "constant": true
    },
    {
      "inputs": [],
      "name": "owner",
      "outputs": [
        {
          "internalType": "address",
          "name": "",
          "type": "address"
        }
      ],
      "stateMutability": "view",
      "type": "function",
      "constant": true
    },
    {
      "inputs": [
        {
          "internalType": "uint256",
          "name": "tokenId",
          "type": "uint256"
        }
      ],
      "name": "ownerOf",
      "outputs": [
        {
          "internalType": "address",
          "name": "",
          "type": "address"
        }
      ],
      "stateMutability": "view",
      "type": "function",
      "constant": true
    },
    {
      "inputs": [],
      "name": "renounceOwnership",
      "outputs": [],
      "stateMutability": "nonpayable",
      "type": "function"
    },
    {
      "inputs": [
        {
          "internalType": "address",
          "name": "from",
          "type": "address"
        },
        {
          "internalType": "address",
          "name": "to",
          "type": "address"
        },
        {
          "internalType": "uint256",
          "name": "tokenId",
          "type": "uint256"
        }
      ],
      "name": "safeTransferFrom",
      "outputs": [],
      "stateMutability": "nonpayable",
      "type": "function"
    },
    {
      "inputs": [
        {
          "internalType": "address",
          "name": "from",
          "type": "address"
        },
        {
          "internalType": "address",
          "name": "to",
          "type": "address"
        },
        {
          "internalType": "uint256",
          "name": "tokenId",
          "type": "uint256"
        },
        {
          "internalType": "bytes",
          "name": "_data",
          "type": "bytes"
        }
      ],
      "name": "safeTransferFrom",
      "outputs": [],
      "stateMutability": "nonpayable",
      "type": "function"
    },
    {
      "inputs": [
        {
          "internalType": "address",
          "name": "operator",
          "type": "address"
        },
        {
          "internalType": "bool",
          "name": "approved",
          "type": "bool"
        }
      ],
      "name": "setApprovalForAll",
      "outputs": [],
      "stateMutability": "nonpayable",
      "type": "function"
    },
    {
      "inputs": [
        {
          "internalType": "bytes4",
          "name": "interfaceId",
          "type": "bytes4"
        }
      ],
      "name": "supportsInterface",
      "outputs": [
        {
          "internalType": "bool",
          "name": "",
          "type": "bool"
        }
      ],
      "stateMutability": "view",
      "type": "function",
      "constant": true
    },
    {
      "inputs": [],
      "name": "symbol",
      "outputs": [
        {
          "internalType": "string",
          "name": "",
          "type": "string"
        }
      ],
      "stateMutability": "view",
      "type": "function",
      "constant": true
    },
    {
      "inputs": [
        {
          "internalType": "uint256",
          "name": "tokenId",
          "type": "uint256"
        }
      ],
      "name": "tokenURI",
      "outputs": [
        {
          "internalType": "string",
          "name": "",
          "type": "string"
        }
      ],
      "stateMutability": "view",
      "type": "function",
      "constant": true
    },
    {
      "inputs": [
        {
          "internalType": "address",
          "name": "from",
          "type": "address"
        },
        {
          "internalType": "address",
          "name": "to",
          "type": "address"
        },
        {
          "internalType": "uint256",
          "name": "tokenId",
          "type": "uint256"
        }
      ],
      "name": "transferFrom",
      "outputs": [],
      "stateMutability": "nonpayable",
      "type": "function"
    },
    {
      "inputs": [
        {
          "internalType": "address",
          "name": "newOwner",
          "type": "address"
        }
      ],
      "name": "transferOwnership",
      "outputs": [],
      "stateMutability": "nonpayable",
      "type": "function"
    },
    {
      "inputs": [
        {
          "internalType": "address",
          "name": "recipient",
          "type": "address"
        },
        {
          "internalType": "string",
          "name": "tokenURI",
          "type": "string"
        }
      ],
      "name": "mintNFT",
      "outputs": [
        {
          "internalType": "uint256",
          "name": "",
          "type": "uint256"
        }
      ],
      "stateMutability": "nonpayable",
      "type": "function"
    },
    {
      "inputs": [
        {
          "internalType": "address",
          "name": "tokenAddress",
          "type": "address"
        }
      ],
      "name": "setToken",
      "outputs": [
        {
          "internalType": "bool",
          "name": "",
          "type": "bool"
        }
      ],
      "stateMutability": "nonpayable",
      "type": "function"
    }
  ],
  "bytecode": "0x60806040523480156200001157600080fd5b5060408051808201825260078152661399db99d3919560ca1b6020808301918252835180850190945260048452634e474e4760e01b9084015281519192916200005d91600091620000f0565b50805162000073906001906020840190620000f0565b505050620000906200008a6200009a60201b60201c565b6200009e565b600a8055620001d3565b3390565b600780546001600160a01b038381166001600160a01b0319831681179093556040519116919082907f8be0079c531659141344cd1fd0a4f28419497f9722a3daafe3b4186f6b6457e090600090a35050565b828054620000fe9062000196565b90600052602060002090601f0160209004810192826200012257600085556200016d565b82601f106200013d57805160ff19168380011785556200016d565b828001600101855582156200016d579182015b828111156200016d57825182559160200191906001019062000150565b506200017b9291506200017f565b5090565b5b808211156200017b576000815560010162000180565b600181811c90821680620001ab57607f821691505b60208210811415620001cd57634e487b7160e01b600052602260045260246000fd5b50919050565b611a9f80620001e36000396000f3fe608060405234801561001057600080fd5b50600436106101215760003560e01c806370a08231116100ad578063b88d4fde11610071578063b88d4fde1461024d578063c87b56dd14610260578063e985e9c514610273578063eacabe14146102af578063f2fde38b146102c257600080fd5b806370a0823114610206578063715018a6146102195780638da5cb5b1461022157806395d89b4114610232578063a22cb4651461023a57600080fd5b80630d39fc81116100f45780630d39fc81146101a3578063144fa6d7146101ba57806323b872dd146101cd57806342842e0e146101e05780636352211e146101f357600080fd5b806301ffc9a71461012657806306fdde031461014e578063081812fc14610163578063095ea7b31461018e575b600080fd5b6101396101343660046114c8565b6102d5565b60405190151581526020015b60405180910390f35b610156610327565b604051610145919061153d565b610176610171366004611550565b6103b9565b6040516001600160a01b039091168152602001610145565b6101a161019c366004611580565b610446565b005b6101ac600a5481565b604051908152602001610145565b6101396101c83660046115aa565b61055c565b6101a16101db3660046115c5565b6105c0565b6101a16101ee3660046115c5565b6105f1565b610176610201366004611550565b61060c565b6101ac6102143660046115aa565b610683565b6101a161070a565b6007546001600160a01b0316610176565b610156610740565b6101a161024836600461160f565b61074f565b6101a161025b3660046116d2565b61075e565b61015661026e366004611550565b610796565b61013961028136600461174e565b6001600160a01b03918216600090815260056020908152604080832093909416825291909152205460ff1690565b6101ac6102bd366004611781565b61090d565b6101a16102d03660046115aa565b610a89565b60006001600160e01b031982166380ac58cd60e01b148061030657506001600160e01b03198216635b5e139f60e01b145b8061032157506301ffc9a760e01b6001600160e01b03198316145b92915050565b606060008054610336906117e3565b80601f0160208091040260200160405190810160405280929190818152602001828054610362906117e3565b80156103af5780601f10610384576101008083540402835291602001916103af565b820191906000526020600020905b81548152906001019060200180831161039257829003601f168201915b5050505050905090565b60006103c482610b24565b61042a5760405162461bcd60e51b815260206004820152602c60248201527f4552433732313a20617070726f76656420717565727920666f72206e6f6e657860448201526b34b9ba32b73a103a37b5b2b760a11b60648201526084015b60405180910390fd5b506000908152600460205260409020546001600160a01b031690565b60006104518261060c565b9050806001600160a01b0316836001600160a01b031614156104bf5760405162461bcd60e51b815260206004820152602160248201527f4552433732313a20617070726f76616c20746f2063757272656e74206f776e656044820152603960f91b6064820152608401610421565b336001600160a01b03821614806104db57506104db8133610281565b61054d5760405162461bcd60e51b815260206004820152603860248201527f4552433732313a20617070726f76652063616c6c6572206973206e6f74206f7760448201527f6e6572206e6f7220617070726f76656420666f7220616c6c00000000000000006064820152608401610421565b6105578383610b41565b505050565b6007546000906001600160a01b031633146105895760405162461bcd60e51b81526004016104219061181e565b6001600160a01b03821661059c57600080fd5b50600980546001600160a01b0319166001600160a01b03831617905560015b919050565b6105ca3382610baf565b6105e65760405162461bcd60e51b815260040161042190611853565b610557838383610c98565b6105578383836040518060200160405280600081525061075e565b6000818152600260205260408120546001600160a01b0316806103215760405162461bcd60e51b815260206004820152602960248201527f4552433732313a206f776e657220717565727920666f72206e6f6e657869737460448201526832b73a103a37b5b2b760b91b6064820152608401610421565b60006001600160a01b0382166106ee5760405162461bcd60e51b815260206004820152602a60248201527f4552433732313a2062616c616e636520717565727920666f7220746865207a65604482015269726f206164647265737360b01b6064820152608401610421565b506001600160a01b031660009081526003602052604090205490565b6007546001600160a01b031633146107345760405162461bcd60e51b81526004016104219061181e565b61073e6000610e34565b565b606060018054610336906117e3565b61075a338383610e86565b5050565b6107683383610baf565b6107845760405162461bcd60e51b815260040161042190611853565b61079084848484610f55565b50505050565b60606107a182610b24565b6108075760405162461bcd60e51b815260206004820152603160248201527f45524337323155524953746f726167653a2055524920717565727920666f72206044820152703737b732bc34b9ba32b73a103a37b5b2b760791b6064820152608401610421565b60008281526006602052604081208054610820906117e3565b80601f016020809104026020016040519081016040528092919081815260200182805461084c906117e3565b80156108995780601f1061086e57610100808354040283529160200191610899565b820191906000526020600020905b81548152906001019060200180831161087c57829003601f168201915b5050505050905060006108b760408051602081019091526000815290565b90508051600014156108ca575092915050565b8151156108fc5780826040516020016108e49291906118a4565b60405160208183030381529060405292505050919050565b61090584610f88565b949350505050565b6007546000906001600160a01b0316331461093a5760405162461bcd60e51b81526004016104219061181e565b600a546009546040516370a0823160e01b81526001600160a01b038681166004830152909116906370a0823190602401602060405180830381865afa158015610987573d6000803e3d6000fd5b505050506040513d601f19601f820116820180604052508101906109ab91906118d3565b116109d25760405162461bcd60e51b81526020600482015260006024820152604401610421565b600954600a546040516323b872dd60e01b81526001600160a01b03868116600483015233602483015260448201929092529116906323b872dd906064016020604051808303816000875af1158015610a2e573d6000803e3d6000fd5b505050506040513d601f19601f82011682018060405250810190610a5291906118ec565b50610a61600880546001019055565b6000610a6c60085490565b9050610a78848261105f565b610a828184611192565b9392505050565b6007546001600160a01b03163314610ab35760405162461bcd60e51b81526004016104219061181e565b6001600160a01b038116610b185760405162461bcd60e51b815260206004820152602660248201527f4f776e61626c653a206e6577206f776e657220697320746865207a65726f206160448201526564647265737360d01b6064820152608401610421565b610b2181610e34565b50565b6000908152600260205260409020546001600160a01b0316151590565b600081815260046020526040902080546001600160a01b0319166001600160a01b0384169081179091558190610b768261060c565b6001600160a01b03167f8c5be1e5ebec7d5bd14f71427d1e84f3dd0314c0f7b2291e5b200ac8c7c3b92560405160405180910390a45050565b6000610bba82610b24565b610c1b5760405162461bcd60e51b815260206004820152602c60248201527f4552433732313a206f70657261746f7220717565727920666f72206e6f6e657860448201526b34b9ba32b73a103a37b5b2b760a11b6064820152608401610421565b6000610c268361060c565b9050806001600160a01b0316846001600160a01b03161480610c6d57506001600160a01b0380821660009081526005602090815260408083209388168352929052205460ff165b806109055750836001600160a01b0316610c86846103b9565b6001600160a01b031614949350505050565b826001600160a01b0316610cab8261060c565b6001600160a01b031614610d0f5760405162461bcd60e51b815260206004820152602560248201527f4552433732313a207472616e736665722066726f6d20696e636f72726563742060448201526437bbb732b960d91b6064820152608401610421565b6001600160a01b038216610d715760405162461bcd60e51b8152602060048201526024808201527f4552433732313a207472616e7366657220746f20746865207a65726f206164646044820152637265737360e01b6064820152608401610421565b610d7c600082610b41565b6001600160a01b0383166000908152600360205260408120805460019290610da590849061191f565b90915550506001600160a01b0382166000908152600360205260408120805460019290610dd3908490611936565b909155505060008181526002602052604080822080546001600160a01b0319166001600160a01b0386811691821790925591518493918716917fddf252ad1be2c89b69c2b068fc378daa952ba7f163c4a11628f55a4df523b3ef91a4505050565b600780546001600160a01b038381166001600160a01b0319831681179093556040519116919082907f8be0079c531659141344cd1fd0a4f28419497f9722a3daafe3b4186f6b6457e090600090a35050565b816001600160a01b0316836001600160a01b03161415610ee85760405162461bcd60e51b815260206004820152601960248201527f4552433732313a20617070726f766520746f2063616c6c6572000000000000006044820152606401610421565b6001600160a01b03838116600081815260056020908152604080832094871680845294825291829020805460ff191686151590811790915591519182527f17307eab39ab6107e8899845ad3d59bd9653f200f220920489ca2b5937696c31910160405180910390a3505050565b610f60848484610c98565b610f6c8484848461121d565b6107905760405162461bcd60e51b81526004016104219061194e565b6060610f9382610b24565b610ff75760405162461bcd60e51b815260206004820152602f60248201527f4552433732314d657461646174613a2055524920717565727920666f72206e6f60448201526e3732bc34b9ba32b73a103a37b5b2b760891b6064820152608401610421565b600061100e60408051602081019091526000815290565b9050600081511161102e5760405180602001604052806000815250610a82565b806110388461131b565b6040516020016110499291906118a4565b6040516020818303038152906040529392505050565b6001600160a01b0382166110b55760405162461bcd60e51b815260206004820181905260248201527f4552433732313a206d696e7420746f20746865207a65726f20616464726573736044820152606401610421565b6110be81610b24565b1561110b5760405162461bcd60e51b815260206004820152601c60248201527f4552433732313a20746f6b656e20616c7265616479206d696e746564000000006044820152606401610421565b6001600160a01b0382166000908152600360205260408120805460019290611134908490611936565b909155505060008181526002602052604080822080546001600160a01b0319166001600160a01b03861690811790915590518392907fddf252ad1be2c89b69c2b068fc378daa952ba7f163c4a11628f55a4df523b3ef908290a45050565b61119b82610b24565b6111fe5760405162461bcd60e51b815260206004820152602e60248201527f45524337323155524953746f726167653a2055524920736574206f66206e6f6e60448201526d32bc34b9ba32b73a103a37b5b2b760911b6064820152608401610421565b6000828152600660209081526040909120825161055792840190611419565b60006001600160a01b0384163b1561131057604051630a85bd0160e11b81526001600160a01b0385169063150b7a02906112619033908990889088906004016119a0565b6020604051808303816000875af192505050801561129c575060408051601f3d908101601f19168201909252611299918101906119dd565b60015b6112f6573d8080156112ca576040519150601f19603f3d011682016040523d82523d6000602084013e6112cf565b606091505b5080516112ee5760405162461bcd60e51b81526004016104219061194e565b805181602001fd5b6001600160e01b031916630a85bd0160e11b149050610905565b506001949350505050565b60608161133f5750506040805180820190915260018152600360fc1b602082015290565b8160005b81156113695780611353816119fa565b91506113629050600a83611a2b565b9150611343565b60008167ffffffffffffffff81111561138457611384611646565b6040519080825280601f01601f1916602001820160405280156113ae576020820181803683370190505b5090505b8415610905576113c360018361191f565b91506113d0600a86611a3f565b6113db906030611936565b60f81b8183815181106113f0576113f0611a53565b60200101906001600160f81b031916908160001a905350611412600a86611a2b565b94506113b2565b828054611425906117e3565b90600052602060002090601f016020900481019282611447576000855561148d565b82601f1061146057805160ff191683800117855561148d565b8280016001018555821561148d579182015b8281111561148d578251825591602001919060010190611472565b5061149992915061149d565b5090565b5b80821115611499576000815560010161149e565b6001600160e01b031981168114610b2157600080fd5b6000602082840312156114da57600080fd5b8135610a82816114b2565b60005b838110156115005781810151838201526020016114e8565b838111156107905750506000910152565b600081518084526115298160208601602086016114e5565b601f01601f19169290920160200192915050565b602081526000610a826020830184611511565b60006020828403121561156257600080fd5b5035919050565b80356001600160a01b03811681146105bb57600080fd5b6000806040838503121561159357600080fd5b61159c83611569565b946020939093013593505050565b6000602082840312156115bc57600080fd5b610a8282611569565b6000806000606084860312156115da57600080fd5b6115e384611569565b92506115f160208501611569565b9150604084013590509250925092565b8015158114610b2157600080fd5b6000806040838503121561162257600080fd5b61162b83611569565b9150602083013561163b81611601565b809150509250929050565b634e487b7160e01b600052604160045260246000fd5b600067ffffffffffffffff8084111561167757611677611646565b604051601f8501601f19908116603f0116810190828211818310171561169f5761169f611646565b816040528093508581528686860111156116b857600080fd5b858560208301376000602087830101525050509392505050565b600080600080608085870312156116e857600080fd5b6116f185611569565b93506116ff60208601611569565b925060408501359150606085013567ffffffffffffffff81111561172257600080fd5b8501601f8101871361173357600080fd5b6117428782356020840161165c565b91505092959194509250565b6000806040838503121561176157600080fd5b61176a83611569565b915061177860208401611569565b90509250929050565b6000806040838503121561179457600080fd5b61179d83611569565b9150602083013567ffffffffffffffff8111156117b957600080fd5b8301601f810185136117ca57600080fd5b6117d98582356020840161165c565b9150509250929050565b600181811c908216806117f757607f821691505b6020821081141561181857634e487b7160e01b600052602260045260246000fd5b50919050565b6020808252818101527f4f776e61626c653a2063616c6c6572206973206e6f7420746865206f776e6572604082015260600190565b60208082526031908201527f4552433732313a207472616e736665722063616c6c6572206973206e6f74206f6040820152701ddb995c881b9bdc88185c1c1c9bdd9959607a1b606082015260800190565b600083516118b68184602088016114e5565b8351908301906118ca8183602088016114e5565b01949350505050565b6000602082840312156118e557600080fd5b5051919050565b6000602082840312156118fe57600080fd5b8151610a8281611601565b634e487b7160e01b600052601160045260246000fd5b60008282101561193157611931611909565b500390565b6000821982111561194957611949611909565b500190565b60208082526032908201527f4552433732313a207472616e7366657220746f206e6f6e20455243373231526560408201527131b2b4bb32b91034b6b83632b6b2b73a32b960711b606082015260800190565b6001600160a01b03858116825284166020820152604081018390526080606082018190526000906119d390830184611511565b9695505050505050565b6000602082840312156119ef57600080fd5b8151610a82816114b2565b6000600019821415611a0e57611a0e611909565b5060010190565b634e487b7160e01b600052601260045260246000fd5b600082611a3a57611a3a611a15565b500490565b600082611a4e57611a4e611a15565b500690565b634e487b7160e01b600052603260045260246000fdfea2646970667358221220259f684fd506587b65def2b68ad9cc9f009cb1ff592ec34225090a0e6f0d6a0164736f6c634300080a0033",
  "immutableReferences": {},
  "source": "// SPDX-License-Identifier: MIT\npragma solidity 0.8.10;\n\nimport \"@openzeppelin/contracts/token/ERC721/ERC721.sol\";\nimport \"@openzeppelin/contracts/utils/Counters.sol\";\nimport \"@openzeppelin/contracts/access/Ownable.sol\";\nimport \"@openzeppelin/contracts/token/ERC721/extensions/ERC721URIStorage.sol\";\nimport \"@openzeppelin/contracts/token/ERC20/IERC20.sol\";\n\n// let contractAdress = 0x96F77190Ca2072dC288a6501d914CC5a3bA07359\n\ncontract NgngNft is ERC721URIStorage, Ownable {\n    using Counters for Counters.Counter;\n    Counters.Counter private _tokenIds;\n    IERC20 token;\n    uint256 public nftPrice;\n\n    constructor() ERC721(\"NgngNFT\", \"NGNG\") {\n        nftPrice = 10;\n    }\n\n    function mintNFT(address recipient, string memory tokenURI) public onlyOwner returns (uint256) {\n        require(token.balanceOf(recipient) > nftPrice,\"\");\n        token.transferFrom(recipient, msg.sender, nftPrice); // from to amount , nft ,  , \n\n        _tokenIds.increment();\n\n        uint256 newItemId = _tokenIds.current(); // uint256  .current()  id\n        _mint(recipient, newItemId);\n        _setTokenURI(newItemId, tokenURI);\n\n        return newItemId;\n    }\n    function setToken (address tokenAddress) public onlyOwner returns (bool) { // tokenAddress   \n        require(tokenAddress != address(0x0)); \n        token = IERC20(tokenAddress); //    ,      \n        return true;\n    } // 1. setToken   \n}",
  "sourcePath": "/Users/yooni/Desktop/beb/section-5/project-2/beb-03-NGNG/contract2/contracts/ERC721.sol",
  "compiler": {
    "name": "solc",
    "version": "0.8.10+commit.fc410830.Emscripten.clang"
  },
  "schemaVersion": "3.4.6",
  "updatedAt": "2022-04-28T09:17:07.950Z",
  "networkType": "ethereum",
  "devdoc": {
    "kind": "dev",
    "methods": {
      "approve(address,uint256)": {
        "details": "See {IERC721-approve}."
      },
      "balanceOf(address)": {
        "details": "See {IERC721-balanceOf}."
      },
      "getApproved(uint256)": {
        "details": "See {IERC721-getApproved}."
      },
      "isApprovedForAll(address,address)": {
        "details": "See {IERC721-isApprovedForAll}."
      },
      "name()": {
        "details": "See {IERC721Metadata-name}."
      },
      "owner()": {
        "details": "Returns the address of the current owner."
      },
      "ownerOf(uint256)": {
        "details": "See {IERC721-ownerOf}."
      },
      "renounceOwnership()": {
        "details": "Leaves the contract without owner. It will not be possible to call `onlyOwner` functions anymore. Can only be called by the current owner. NOTE: Renouncing ownership will leave the contract without an owner, thereby removing any functionality that is only available to the owner."
      },
      "safeTransferFrom(address,address,uint256)": {
        "details": "See {IERC721-safeTransferFrom}."
      },
      "safeTransferFrom(address,address,uint256,bytes)": {
        "details": "See {IERC721-safeTransferFrom}."
      },
      "setApprovalForAll(address,bool)": {
        "details": "See {IERC721-setApprovalForAll}."
      },
      "supportsInterface(bytes4)": {
        "details": "See {IERC165-supportsInterface}."
      },
      "symbol()": {
        "details": "See {IERC721Metadata-symbol}."
      },
      "tokenURI(uint256)": {
        "details": "See {IERC721Metadata-tokenURI}."
      },
      "transferFrom(address,address,uint256)": {
        "details": "See {IERC721-transferFrom}."
      },
      "transferOwnership(address)": {
        "details": "Transfers ownership of the contract to a new account (`newOwner`). Can only be called by the current owner."
      }
    },
    "version": 1
  },
  "userdoc": {
    "kind": "user",
    "methods": {},
    "version": 1
  }
}